{
  "contractName": "TodoList",
  "abi": [
    {
      "inputs": [],
      "payable": false,
      "stateMutability": "nonpayable",
      "type": "constructor"
    },
    {
      "anonymous": false,
      "inputs": [
        {
          "indexed": false,
          "internalType": "uint256",
          "name": "id",
          "type": "uint256"
        },
        {
          "indexed": false,
          "internalType": "string",
          "name": "content",
          "type": "string"
        },
        {
          "indexed": false,
          "internalType": "bool",
          "name": "completed",
          "type": "bool"
        }
      ],
      "name": "TaskCreated",
      "type": "event"
    },
    {
      "constant": true,
      "inputs": [],
      "name": "taskCount",
      "outputs": [
        {
          "internalType": "uint256",
          "name": "",
          "type": "uint256"
        }
      ],
      "payable": false,
      "stateMutability": "view",
      "type": "function"
    },
    {
      "constant": true,
      "inputs": [
        {
          "internalType": "uint256",
          "name": "",
          "type": "uint256"
        }
      ],
      "name": "tasks",
      "outputs": [
        {
          "internalType": "uint256",
          "name": "id",
          "type": "uint256"
        },
        {
          "internalType": "string",
          "name": "content",
          "type": "string"
        },
        {
          "internalType": "uint256",
          "name": "createdTimestamp",
          "type": "uint256"
        },
        {
          "internalType": "bool",
          "name": "isTask",
          "type": "bool"
        },
        {
          "internalType": "bool",
          "name": "completed",
          "type": "bool"
        }
      ],
      "payable": false,
      "stateMutability": "view",
      "type": "function"
    },
    {
      "constant": false,
      "inputs": [
        {
          "internalType": "string",
          "name": "_content",
          "type": "string"
        },
        {
          "internalType": "bool",
          "name": "_isTask",
          "type": "bool"
        }
      ],
      "name": "createTask",
      "outputs": [],
      "payable": false,
      "stateMutability": "nonpayable",
      "type": "function"
    }
  ],
  "bytecode": "0x60806040526000805534801561001457600080fd5b5060408051808201909152601781527f57656c636f6d6520746f204c6164646f6f204e6f746573000000000000000000602082015261005d9060006001600160e01b0361006216565b610249565b6000805460019081018083556040805160a0810182528281526020808201888152428385015287151560608401526080830187905293865284815291909420845181559151805192936100bd939085019291909101906101ae565b5060408281015160028301556060808401516003909301805460809586015115156101000261ff001995151560ff19909216919091179490941693909317909255600080548251818152928301829052602080840185815288519585019590955287517f05d0fb833127fc08168556d0e7ca9554fc3f6bc843b3b7d2bf1c35aea6bab66096929589959390929084019190860190808383885b8381101561016e578181015183820152602001610156565b50505050905090810190601f16801561019b5780820380516001836020036101000a031916815260200191505b5094505050505060405180910390a15050565b828054600181600116156101000203166002900490600052602060002090601f016020900481019282601f106101ef57805160ff191683800117855561021c565b8280016001018555821561021c579182015b8281111561021c578251825591602001919060010190610201565b5061022892915061022c565b5090565b61024691905b808211156102285760008155600101610232565b90565b61049f806102586000396000f3fe608060405234801561001057600080fd5b50600436106100415760003560e01c806316f70430146100465780638d977672146100f0578063b6cb58a5146101a4575b600080fd5b6100ee6004803603604081101561005c57600080fd5b81019060208101813564010000000081111561007757600080fd5b82018360208201111561008957600080fd5b803590602001918460018302840111640100000000831117156100ab57600080fd5b91908080601f01602080910402602001604051908101604052809392919081815260200183838082843760009201919091525092955050505035151590506101be565b005b61010d6004803603602081101561010657600080fd5b503561030a565b604080518681529081018490528215156060820152811515608082015260a06020808301828152875192840192909252865160c084019188019080838360005b8381101561016557818101518382015260200161014d565b50505050905090810190601f1680156101925780820380516001836020036101000a031916815260200191505b50965050505050505060405180910390f35b6101ac6103c9565b60408051918252519081900360200190f35b6000805460019081018083556040805160a081018252828152602080820188815242838501528715156060840152608083018790529386528481529190942084518155915180519293610219939085019291909101906103cf565b5060408281015160028301556060808401516003909301805460809586015115156101000261ff001995151560ff19909216919091179490941693909317909255600080548251818152928301829052602080840185815288519585019590955287517f05d0fb833127fc08168556d0e7ca9554fc3f6bc843b3b7d2bf1c35aea6bab66096929589959390929084019190860190808383885b838110156102ca5781810151838201526020016102b2565b50505050905090810190601f1680156102f75780820380516001836020036101000a031916815260200191505b5094505050505060405180910390a15050565b600160208181526000928352604092839020805481840180548651600296821615610100026000190190911695909504601f810185900485028601850190965285855290949193929091908301828280156103a65780601f1061037b576101008083540402835291602001916103a6565b820191906000526020600020905b81548152906001019060200180831161038957829003601f168201915b50505050600283015460039093015491929160ff80821692506101009091041685565b60005481565b828054600181600116156101000203166002900490600052602060002090601f016020900481019282601f1061041057805160ff191683800117855561043d565b8280016001018555821561043d579182015b8281111561043d578251825591602001919060010190610422565b5061044992915061044d565b5090565b61046791905b808211156104495760008155600101610453565b9056fea265627a7a7231582028cb36bbe11c5c788d861e276b5ceeec234fd6df98c5b89b54fbd68108d0b62964736f6c63430005100032",
  "source": "// SPDX-License-Identifier: MIT\r\npragma solidity >=0.4.22 <0.9.0;\r\n\r\ncontract TodoList {\r\n\tstruct Task {\r\n\t\tuint id;\r\n\t\tstring content;\r\n\t\tuint createdTimestamp;\r\n\t\tbool isTask;\r\n\t\tbool completed;\r\n\t}\r\n\tuint public taskCount = 0;\r\n\tmapping(uint => Task) public tasks;\r\n\r\n\tconstructor() public {\r\n\t\tcreateTask(\"Welcome to Laddoo Notes\", false);\r\n\t}\r\n\r\n\tevent TaskCreated(uint id, string content, bool completed);\r\n\t// function getTaskCount() public view returns(uint) {\r\n\t// \treturn taskCount;\r\n\t// }\r\n\r\n\tfunction createTask(string memory _content, bool _isTask) public {\r\n\t\ttaskCount++;\r\n\t\ttasks[taskCount] = Task(taskCount, _content, block.timestamp, _isTask, false);\r\n\t\temit TaskCreated(taskCount, _content, false);\r\n\t}\r\n}",
  "sourcePath": "F:\\JS\\react-dapp\\contracts\\TodoList.sol",
  "compiler": {
    "name": "solc",
    "version": "0.5.16+commit.9c3226ce.Emscripten.clang"
  },
  "schemaVersion": "3.4.3",
  "updatedAt": "2021-09-20T17:19:44.333Z",
  "networkType": "ethereum",
  "devdoc": {
    "methods": {}
  },
  "userdoc": {
    "methods": {}
  }
}