{
  "contractName": "TodoList",
  "abi": [
    {
      "constant": true,
      "inputs": [],
      "name": "taskCount",
      "outputs": [
        {
          "internalType": "uint256",
          "name": "",
          "type": "uint256"
        }
      ],
      "payable": false,
      "stateMutability": "view",
      "type": "function"
    },
    {
      "constant": true,
      "inputs": [],
      "name": "getTaskCount",
      "outputs": [
        {
          "internalType": "uint256",
          "name": "",
          "type": "uint256"
        }
      ],
      "payable": false,
      "stateMutability": "view",
      "type": "function"
    }
  ],
  "bytecode": "0x608060405260008055348015601357600080fd5b506096806100226000396000f3fe6080604052348015600f57600080fd5b506004361060325760003560e01c8063b6cb58a5146037578063c17a340e14604f575b600080fd5b603d6055565b60408051918252519081900360200190f35b603d605b565b60005481565b6000549056fea265627a7a72315820f0f74f4031415783ab926cf569dd9069b453ecbf2d458ac7adfb97a244a53d4464736f6c63430005100032",
  "source": "// SPDX-License-Identifier: MIT\r\npragma solidity >=0.4.22 <0.9.0;\r\n\r\ncontract TodoList {\r\n\tuint public taskCount = 0;\r\n\r\n\tfunction getTaskCount() public view returns(uint) {\r\n\t\treturn taskCount;\r\n\t}\r\n}",
  "sourcePath": "F:\\JS\\react-dapp\\contracts\\TodoList.sol",
  "compiler": {
    "name": "solc",
    "version": "0.5.16+commit.9c3226ce.Emscripten.clang"
  },
  "schemaVersion": "3.4.3",
  "updatedAt": "2021-09-20T14:12:53.881Z",
  "networkType": "ethereum",
  "devdoc": {
    "methods": {}
  },
  "userdoc": {
    "methods": {}
  }
}